:020000040800F2
:10000000A008002005030008230F0008D30E0008F5
:10001000210F0008B503000885110008000000004A
:100020000000000000000000000000004D02000879
:10003000B703000800000000A1020008C90F000873
:100040001F0300081F0300081F0300081F03000808
:100050001F0300081F0300081F0300081F030008F8
:100060001F0300081F0300081F0300081F030008E8
:100070001F0300081F0300081F0300081F030008D8
:100080001F0300081F0300081F0300081F030008C8
:100090001F0300081F0300081F0300081F030008B8
:1000A0001F0300081F0300081F0300081F030008A8
:1000B0001F0300081F0300081F0300081F03000898
:1000C0001F0300081F0300081F0300081F03000888
:1000D0001F030008411100081F0300081F03000848
:1000E0001F0300081F0300081F0300081F03000868
:1000F0001F0300081F0300081F0300081F03000858
:100100001F0300081F0300081F0300081F03000847
:100110001F0300081F0300081F0300081F03000837
:100120001F0300081F0300081F0300081F03000827
:100130001F0300081F0300081F0300081F03000817
:100140001F0300081F0300081F0300081F03000807
:100150001F0300081F0300081F0300081F030008F7
:100160001F0300081F0300081F0300081F030008E7
:100170001F0300081F0300081F0300080000000001
:100180001F0300081F0300081F0300081F030008C7
:100190001F0300081F0300081F0300081F030008B7
:1001A0001F0300081F0300081F03000800F002F8E7
:1001B00000F03CF80AA090E8000C82448344AAF1C5
:1001C0000107DA4501D100F031F8AFF2090EBAE8C3
:1001D0000F0013F0010F18BFFB1A43F0010318477B
:1001E000B4140000D4140000103A24BF78C878C1B9
:1001F000FAD8520724BF30C830C144BF04680C602D
:10020000704700000023002400250026103A28BF74
:1002100078C1FBD8520728BF30C148BF0B60704778
:100220001FB501F029FA1FBD10B510BD00F08FF801
:100230001146FFF7F5FF00F0F9FF00F0ADF803B449
:10024000FFF7F2FF03BC00F09EFF00002A4B196885
:100250000868B0E8F04F80F30988BFF36F8F4FF064
:10026000000080F311887047000000000648006815
:10027000006880F3088862B661B6BFF34F8FBFF3A2
:100280006F8F00DF00BF00BF08ED00E0DFF80C005B
:10029000016841F470010160704700BF88ED00E023
:1002A000EFF30980BFF36F8F134B1A681EF0100F26
:1002B00008BF20ED108A20E9F04F106008B44FF01D
:1002C000500080F31188BFF34F8FBFF36F8F01F0A1
:1002D000BBF84FF0000080F3118808BC196808686B
:1002E000B0E8F04F1EF0100F08BFB0EC108A80F39A
:1002F0000988BFF36F8F704724000020EFF305805B
:10030000704700000948804709480047FEE7FEE7BC
:10031000FEE7FEE7FEE7FEE7FEE7FEE7FEE7FEE7B5
:1003200004480549054A064B70470000E10F0008E4
:10033000AD010008A0020020A0080020A0040020B9
:10034000A00400207047704770477047704775469B
:1003500000F02CF8AE4605006946534620F0070031
:10036000854618B020B5FFF7DBFFBDE820404FF011
:1003700000064FF000074FF000084FF0000B21F08F
:100380000701AC46ACE8C009ACE8C009ACE8C0095C
:10039000ACE8C0098D46704710B50446AFF3008045
:1003A0002046BDE81040FFF74ABF000000487047F4
:1003B0003C020020FEE770472DE9F84FDFF8A091DE
:1003C000002209F1040A0AF1040B4FF00F080BF1A7
:1003D000040E01260B6896403340B34271D14C683D
:1003E000022C01D0122C11D1D40800EB84073D6AF5
:1003F0005407E40E08FA04FC25EA0C05D1F810C0F5
:100400000CFA04FC4CEA050CC7F820C0076854003D
:10041000032591F804C0A5400CF0030CAF430CFA7F
:1004200004FC4CEA070CC0F800C04F68012F05D04F
:10043000022F03D0112F01D0122F11D18768D1F8CC
:100440000CC0AF430CFA04FC4CEA070CC0F808C01F
:100450004768B7430E79C6F3001696403E434660A0
:10046000C668AE438D68A5403543C5604C68E4005E
:100470006FD53C4C256845F480452560246822F002
:10048000030504F480440094374C2E19D6F80878FC
:100490009407250F08FA05F4A743344CA04201D174
:1004A00000242EE0324CA04201D1012429E0314C3D
:1004B000A04201D1022424E02F4CA04202D1032407
:1004C0001FE046E02D4CA04201D1042419E02C4C41
:1004D000A04201D1052414E02A4CA04201D10624F7
:1004E0000FE0294CA04201D107240AE0274CA0428A
:1004F00001D1082405E0264CA04201D1092400E0E6
:100500000A24AC403C43C6F80848D9F800404D46A0
:100510004E689C43F60300D51C432C60DAF800407B
:1005200055464E689C43B60300D51C432C60DBF84F
:1005300000405D464E689C43F60200D51C432C608B
:10054000DEF8004075464E689C43B60200D51C4359
:100550002C60521C102AFFF43CAFBDE8F88F00005D
:10056000003C01404438024000300140000002409D
:100570000004024000080240000C0240001002404B
:100580000014024000180240001C024000200240FB
:10059000002402400AB1816170470904FBE70000B2
:1005A00001480068704700001400002002480168FC
:1005B000491C016070470000140000200B4810B572
:1005C000016841F400710160016841F480610160DB
:1005D000016841F480710160052000F03FF80F20B0
:1005E00000F006F800F015F8002010BD003C0240B5
:1005F00010B5044600F08CF94FF47A71B0FBF1F0BD
:1006000000F074FB00222146501E00F007F8002085
:1006100010BD08B50020009008BD0000F0B40E4BDE
:100620001B68C3F30223C3F10704042C00D904247C
:100630001D1D072D01D2002300E0DB1E012606FA56
:1006400004F56D1E0D409D409E40761E164045EA05
:100650000601F0BC00F066BC0CED00E0064A00F0BC
:10066000070110684FF6FF03184040EA01200349D4
:1006700008431060704700000CED00E00000FA0530
:100680002DE9F8431D48016841F080510160006880
:10069000012700F080500090380490FAA0F0DFF8B5
:1006A0006080B0FA80F048F82070FFF779FF0446C8
:1006B0004FF47A75134E04E0FFF772FF001BA84257
:1006C00013D87068C003F7D54FF4003090FAA0F04B
:1006D000B0FA80F048F82070FFF762FF044607E0A8
:1006E000FFF75EFF001BA84202D90320BDE8F88394
:1006F00070688003F4D50020F8E70000403802401D
:1007000000000E42007000402DE9F05FDFF8F8A114
:1007100004460F46DAF80000DFF8F08100F00F021F
:10072000C8B27A49814641F2883608F10808BA42CF
:1007300061D202468AF80020DAF8000000F00F00CB
:10074000B8427DD12078800707D5D8F80020A3686B
:1007500022F0F0021A43C8F800202078C0072DD0FC
:10076000606801281AD002281BD0032819D0096814
:100770008907002964DAD8F80010474621F0030100
:100780000143C8F80010FFF70BFF05466068012819
:100790000FD0022818D003281CD027E0096889034D
:1007A000E7E709688901E4E7FFF7FAFE401BB0427A
:1007B00058D83868C0F381000128F5D188E0FFF7E8
:1007C000EFFE401BB0424DD83868C0F381000228CC
:1007D000F5D17DE03868FFF7E3FE401BB042F9D960
:1007E00040E0FFF7DDFE401BB0423BD8386810F018
:1007F0000C0FF6D16CE02078800707D5D8F80020E0
:10080000A36822F0F0021A43C8F800202078C0073D
:100810004CD06068012828D0022829D0032827D08E
:1008200009688907002949DAD8F8002022F0030274
:100830000243C8F80020FFF7B3FE0546606800E0F9
:100840003CE001281DD0022829D0032838D0B34627
:100850004646306810F00C0F28D0FFF7A1FE411B70
:100860005945F6D90320BDE8F09F09688903D9E707
:1008700009688901D6E7FFF793FE411B594502D964
:10088000F0E7B34646463068C0F381000128F2D154
:100890000CE0FFF785FE411B594502D9E2E7B3465C
:1008A00046463068C0F381000228F2D18AF80090F1
:1008B000DAF8000000F00F00B84209D00120D2E7BA
:1008C00044462068FFF76CFE401BB042F9D9C9E7E7
:1008D0002078400707D5D8F80010E26821F4E051ED
:1008E0001143C8F800102078000708D5D8F8001088
:1008F000226921F4604141EAC201C8F800100F20CA
:10090000FFF776FE0020AEE7003C024000380240D0
:1009100010B500F017F808490968F02292FAA2F21F
:1009200001F0F001B2FA82F2D140044A515CC840B1
:100930000349086010BD0000083802408216000814
:100940000000002030B51948006810F00C0118486C
:1009500012D0184C04290ED008290DD1134A121FA9
:100960001168136801F03F015D0247F6C07304D5BA
:10097000B4FBF1F003E0204630BDB0FBF1F01168AC
:10098000194093FAA3F3B3FA83F3D94048431168AB
:100990004FF4403292FAA2F201F44031B2FA82F2FC
:1009A000D140491C4900B0FBF1F030BD083802408D
:1009B0000024F40040787D012DE9F84F04460078CA
:1009C000DFF8FCA2BF4DC0074FF0000648D0DAF8B0
:1009D00000105046C1F38101012908D00068C0F31E
:1009E000810002280AD1281D0068400206D5286827
:1009F000800335D56068002873D031E0DFF8C492F9
:100A000009F1020989F80060FFF7CAFD074641F2C3
:100A1000883804E0FFF7C4FDC11B41457AD8286837
:100A20008003F7D4207989F80000606860B1FFF78F
:100A3000B7FD074604E0FFF7B3FDC11B4145EDD804
:100A400028688003F7D50BE0FFF7AAFD074604E00E
:100A5000FFF7A6FDC11B4145E0D828688003F7D405
:100A60002078DFF86492800744D5DAF80010504609
:100A700011F00C0F4FF0F80809D00068C0F38100A6
:100A800002280BD18E48001F0068400206D4286857
:100A9000800714D5E068012823D110E0E068D0B1C8
:100AA0000120C9F80000FFF77BFD074604E0FFF7CF
:100AB00077FDC01B6428B1D828688007F7D528685F
:100AC00098FAA8F22169B2FA82F220F0F800914077
:100AD000084328600EE0C9F80060FFF761FD074693
:100AE00005E0EAE0FFF75CFDC01B642812D8286827
:100AF0008007F7D42078000725D5DFF8C481734834
:100B0000616908F16C0881B101210160FFF748FDBE
:100B1000074605E07EE0FFF743FDC01B642879D857
:100B2000D8F800008007F6D50DE00660FFF738FD25
:100B3000074604E0FFF734FDC01B64286AD8D8F8E4
:100B400000008007F6D42078400753D55C48383041
:100B5000016841F0805101600068DFF8748100F0A5
:100B600080500090D8F8001041F48071C8F800104F
:100B7000FFF716FD074604E0FFF712FDC01B6428CF
:100B800048D8D8F80000C005F6D5DFF834B10BF12D
:100B9000680B8BF80060FFF703FD074641F28838C9
:100BA00004E0FFF7FDFCC11B41457ED8DBF80000E7
:100BB0008007F6D4207A8BF80000A06868B1FFF7B0
:100BC000EFFC074604E0FFF7EBFCC11B41456CD886
:100BD000DBF800008007F6D50CE0FFF7E1FC0746E4
:100BE00004E0FFF7DDFCC11B41455ED8DBF80000E7
:100BF0008007F6D4A069E8B3DAF80010C1F38101E8
:100C000002295AD0022806D0C9F86060FFF7C8FC54
:100C100004464DE049E04F46C9F86060FFF7C0FC6C
:100C2000064604E0FFF7BCFC801B64283DD828681A
:100C30008001F7D4D4E90701084347F6C07191FA5F
:100C4000A1F1626AB1FA81F18A40A16A4FF0FF33E3
:100C500003EB51014FF4403393FAA3F3B3FA83F358
:100C600099400A4310434FF0706292FAA2F2B2FA2E
:100C700082F200E01FE0E16A914008431049091F39
:100C8000086001203866FFF78BFC044604E0FFF79C
:100C900087FC001B642808D828688001F7D50AE083
:100CA000FFF77EFC001B642802D90320BDE8F88F03
:100CB00028688001F4D40020F8E70120F6E700005E
:100CC000083802400038024000004742800E474288
:100CD000007000404FF0E0210428086903D020F0A4
:100CE00004000861704740F00400FAE710B5401EA8
:100CF000B0F1807F01D3012010BD4FF0E02460618E
:100D00000F21601700F00EF90020A061072020617C
:100D1000002010BD704790F83900704738B5016861
:100D200004460868CA68C0F3000002F4807238B153
:100D300032B1086848680090E06B40F00100E06361
:100D400008684A69C0F3400002F0010238B132B1CC
:100D5000086848680090E06B40F00400E0630868B1
:100D60004A69C0F3800002F0010238B132B108686C
:100D700048680090E06B40F00200E06308684A6950
:100D8000C0F3C00002F0010238B132B1086848680F
:100D90000090E06B40F00800E0630868C968C0F3A9
:100DA000401001F0200118B111B1204600F042F9C5
:100DB00020680168C068C1F3C01100F0800019B15B
:100DC00010B1204600F089F921680868CA68C0F3AC
:100DD000801002F04002012568B162B1CA68204665
:100DE00022F04002CA6094F8391032290CD080F801
:100DF000395000F06DF8E06B002804D084F83950C9
:100E00002046FFF787FF38BD222180F83910F0E730
:100E100090F83930012B01D0122B2BD131B32AB3EA
:100E200090F83830012B25D0012380F838308162CA
:100E30008285C2850022C26390F83910122917D02A
:100E4000222180F839100168CB6843F48073CB60AD
:100E500001684B6943F001034B6180F8382000685A
:100E6000C16841F02001C160002070470120704737
:100E70003221E6E70220704730B500681149884208
:100E80000CD1114A5088010408D411464404097851
:100E90004FF0000306D50A2901D0538030BD40F43D
:100EA00000400DE00D2909D0C0F30D04074D401C92
:100EB00080B229555080C728EFD830BD40F480401B
:100EC000508030BD00100140200000206C00002048
:100ED0007047FEE7104810B5016886B041F0020186
:100EE00001600068012100F0020005900320CDE9B7
:100EF0000210CDE90001094C69462046FFF75CFA73
:100F0000012211462046FFF745FB0122022120461F
:100F1000FFF740FB06B010BD30380240000402402D
:100F2000FEE770470907090E002806DA00F00F00F7
:100F300000F1E02080F8141D704700F1E02080F8F7
:100F40000014704770B51E4C92B00025266846F01C
:100F500080562660246804F080541194194C266849
:100F600046F44046266024680DF1240C04F4404405
:100F70001194012400940194022406948CE80D003D
:100F80006605CDE907616846FFF716FD00B1FEE78B
:100F9000FFF776FB00B1FEE70CA90F2081E83100D6
:100FA0004FF4A0500F904FF48050109005210CA8E2
:100FB000FFF7AAFB002800D0FEE712B070BD0000CA
:100FC000403802400070004010B500F081FA01285E
:100FD00001D000F067FABDE81040FFF7E7BA000063
:100FE0001048016841F4700101600F48016841F048
:100FF000010101600C4A00210832116002680B4BAC
:101000001A400260031D0A4A1A60026822F4802214
:10101000026005480C3001600249580680390860BA
:101020007047000088ED00E000380240FFFFF6FE48
:101030001030002410B590F83910222903D032293D
:1010400001D0022010BD8168B1F5805F11D0016927
:10105000002901681FD0496801F07F03816A4A1C9A
:1010600082620B70C18D491E0904090CC18518D01C
:101070002FE00269816A002A0268526805D0D2B264
:101080000A80816A491C8162ECE7C2F308020A8087
:10109000816A891CF7E74A68816A4B1C83620A707F
:1010A000E0E70168CA6822F02002CA6090F83910AF
:1010B000322910D00168CA6822F48072CA600168BF
:1010C0004A6922F001024A61012180F83910FFF7D4
:1010D000D3FE002010BD1221F7E790F83910122935
:1010E00003D0322901D0022070478168B1F5805FBA
:1010F000016A0BD04A1C0262026809785160C18CF7
:10110000491E0904090CC1840ED017E00988026841
:10111000C1F30801516001690029016A02D0491C2C
:101120000162ECE7891CFBE70168CA6822F08002D3
:10113000CA600068C16841F04001C160002070478A
:1011400070B500240C4D0D48FFF7E8FD02E0641C6B
:10115000AC4204D80948FFF7DEFD0128F7D100248E
:1011600002E0641CAC4206D8012205490348FFF79F
:101170004FFE0028F5D170BDFFFF010034010020B3
:1011800020000020FEE7704710B504460420FFF75A
:10119000A1FD0A484FF47A7114FB01F10122446069
:1011A00002804FF0E020026942F0020202614161D8
:1011B000016941F00101016110BD0000180000202B
:1011C00070B5044600F084F901280CD0094D288838
:1011D000844203D3B4FBF0F000F008F92888B4FB94
:1011E000F0F100FB11444FF47A706043BDE87040A9
:1011F00000F002B81800002070B54FF0E025002183
:101200006C69094AAB6952685043AA699A42FCD09A
:1012100002D2A3EB020302E0A4EB0206334419441A
:1012200013468142F1D370BD18000020FFF7C6F9C4
:101230000823022219214FF4B470FFF783FEB42073
:10124000FFF7A2FFFFF746FE0E4D4FF4FA7400229F
:1012500002212846FFF79EF9012211462846FFF792
:1012600099F92046FFF7ACFF012202212846FFF73B
:1012700091F9002201212846FFF78CF92046FFF75B
:101280009FFFE4E7000402402DE9F041184E0F46AD
:101290000446F5683068001D00F03EF838B9306843
:1012A00090F82C1001208840316981433161601C25
:1012B00007D137B13168BDE8F0410E48091D00F093
:1012C00055B830682C44AC424460316805D2B06BEC
:1012D000BDE8F041091D00F031B8706B091D00F048
:1012E0002DF8B06A844200D2B462BDE8F0810000FB
:1012F00024000020280200200648416B096829B11B
:10130000416BC968C9684968816270474FF0FF3115
:10131000FAE7000024000020D0E9013201699A6058
:10132000D0E901235A604A68824201D182684A604A
:10133000002202610868401E0860704730B50C68E2
:10134000621C02D000F1080202E0026904E01A46C1
:1013500053681D68A542FAD953684B6099608A604A
:10136000516008610168491C016030BD42684A60F3
:1013700093688B6093685960916008610168491CAB
:1013800001607047502080F31188BFF34F8FBFF387
:101390006F8F0A494868401C486001280CD10848F2
:1013A000006810F0FF0F07D0502080F31188BFF3C2
:1013B0004F8FBFF36F8FFEE7704700006000002083
:1013C00004ED00E00849486828B1401E486001D19A
:1013D00080F311887047502080F31188BFF34F8F3E
:1013E000BFF36F8FFEE700006000002010B5020021
:1013F00014D00F48006B38B1502080F31188BFF330
:101400004F8FBFF36F8FFEE700F016F800211046F4
:10141000FFF73AFF00F0CEF8002807D105494FF05A
:1014200080500860BFF34F8FBFF36F8F10BD000077
:101430002400002004ED00E00248016B491C016318
:101440007047000024000020144A106B10B10120E6
:10145000D06170470020D06110691149B0FA80F066
:10146000C0F11F0000EB800051F820306BB101EBA0
:10147000800000F10803416849684160994201D148
:1014800049684160C86810607047502080F3118837
:10149000BFF34F8FBFF36F8FFEE7000024000020E3
:1014A0007401002010B5502080F31188BFF34F8FD6
:1014B000BFF36F8F00F01AF818B104494FF0805055
:1014C0000860002080F3118810BD000004ED00E0EA
:1014D0000548416919B1006B18B10020704701201F
:1014E0007047022070470000240000202DE9F041E1
:1014F0002E4F0026386B40B1B869401CB861F869BE
:1015000000B101263046BDE8F081FD686D1CFD602C
:1015100013D1786B006838B1502080F31188BFF385
:101520004F8FBFF36F8FFEE7786BB96B7963B8634A
:10153000386A401C3862FFF7DFFEB86ADFF8708057
:10154000854209D3786B006880B1786BC068C46845
:10155000606885420DD2B8623868C06A00EB8001CD
:1015600058F821000128CAD90126C8E74FF0FF30FA
:10157000F1E7201DFFF7D0FEA06A18B104F11800B2
:10158000FFF7CAFEE06A01213A69814011433961DF
:1015900000EB800108EB8100211DFFF7E7FEE06A08
:1015A0003968C96A8842CDD30126CBE724000020E0
:1015B000740100202DE9F0472C4D00242746286BAC
:1015C00038B1FFF7DFFE286B401E2863286B40B15F
:1015D00046E0502080F31188BFF34F8FBFF36F8F29
:1015E000FEE7A86822490126D0B3A1F18C098846FC
:1015F000D8F80010E9B1D8F80C00C46804F118005C
:10160000FFF78AFE201DFFF787FEE06A2A6906FAC7
:1016100000F11143296100EB800109EB8100211DDC
:10162000FFF7A4FEE06A2968C96A8842E0D3EE6148
:10163000DEE70CB1FFF760FEAC693CB1FFF756FF87
:1016400000B1EE61641EF9D10020A861E86938B1EB
:101650000849012738070860BFF34F8FBFF36F8F2A
:10166000FFF7B0FE3846BDE8F087000024000020F8
:101670000002002004ED00E04FF04070E1EE100A9F
:101680007047000000000102030401020304060782
:1016900008090000B4160008000000206C000000DB
:1016A000E8010008201700086C0000203408000042
:1016B000040200080024F400000000000000000004
:1016C00001020304060708090000000000000000F2
:1016D000000000000000000000000000000000000A
:1016E00000000000000000000000000000000000FA
:1016F00000000000000000000000000000000000EA
:1017000000000000000000000000000000000000D9
:101710000000000000000000AAAAAAAA0000000021
:04000005080001AD41
:00000001FF
